:020000040800F2
:1000000000500020D504000881040008890400087D
:100010009104000899040008A104000800000000F1
:10002000000000000000000000000000713B00081C
:10003000A904000800000000513D0008993D000897
:100040001D0500081D0500081D0500081D05000808
:100050001D0500081D0500081D0500081D050008F8
:100060001D0500081D0500081D0500081D050008E8
:100070001D0500081D0500081D0500081D050008D8
:100080001D0500081D0500081D0500081D050008C8
:100090001D0500081D0500081D0500081D050008B8
:1000A0001D0500081D0500081D0500081D050008A8
:1000B0001D050008B50400081D0500081D05000801
:1000C0001D0500081D0500081D0500081D05000888
:1000D0001D0500081D0500081D0500081D05000878
:1000E0001D0500081D0500081D0500080000000092
:1000F0000000000000000000000000000000000000
:0C01000000000000000000005FF808F1A3
:1001100010B5054C237833B9044B13B10448AFF341
:1001200000800123237010BD60000020000000004B
:100130002844000808B5034B1BB103490348AFF33B
:10014000008008BD00000000640000202844000872
:1001500080B500AF00F0E4F900F022F800F066F896
:1001600001F040FB0A4A00210A4801F0A1FB0346C6
:10017000094A136001F068FB4FF40051074800F092
:10018000A1FC4FF47A7000F0FDF900BFF4E700BF66
:1001900068440008C50200087C00002000100140EF
:1001A00080B590B000AF07F118032822002118464F
:1001B00004F054F83B1D00221A605A609A60DA601D
:1001C0001A610123BB614FF48033FB6100233B6262
:1001D0000123BB6202237B634FF48033BB634FF484
:1001E000E013FB6307F11803184600F085FC034693
:1001F000002B01D000F088F80F237B600223BB6046
:100200000023FB604FF480633B6100237B613B1D57
:100210000221184600F0F2FE0346002B01D000F048
:1002200073F800BF4037BD4680BD000080B588B080
:1002300000AF07F1100300221A605A609A60DA607A
:100240001E4B9B691D4A43F0100393611B4B9B6936
:1002500003F01003FB60FB68184B9B69174A43F0DF
:1002600020039361154B9B6903F02003BB60BB68BF
:10027000124B9B69114A43F0040393610F4B9B6936
:1002800003F004037B607B6801224FF400510C48AB
:1002900000F000FC4FF400533B6101237B6100231D
:1002A000BB610223FB6107F110031946044800F00B
:1002B0006DFA00BF2037BD4680BD00BF0010024070
:1002C0000010014080B582B000AF78604FF400515B
:1002D000034800F0F7FBC82001F094FB00BFF5E7EE
:1002E0000010014080B582B000AF78607B681B6869
:1002F000044A934201D100F029F900BF0837BD46F6
:1003000080BD00BF0004004080B400AF72B600BFE3
:1003100000BFFDE780B584B000AF184B9B69174A5A
:1003200043F001039361154B9B6903F00103BB602C
:10033000BB68124BDB69114A43F08053D3610F4B0A
:10034000DB6903F080537B607B6800220F216FF034
:10035000010000F0F0F90A4B5B68FB60FB6823F0DA
:10036000E063FB60FB6843F00073FB60044AFB68DA
:10037000536000BF1037BD4680BD00BF0010024073
:100380000000014080B58EB000AF78600023FB62B2
:100390000023BB62002387F83330344BDB69334AD8
:1003A00043F00203D361314BDB6903F00203FB60CE
:1003B000FB6807F1100207F114031146184600F01C
:1003C00079FF3B6AFB62FB6A002B03D100F05EFF02
:1003D000786304E000F05AFF03465B007B637B6BAD
:1003E000234AA2FB03239B0C013BBB62214B224A05
:1003F0001A60204B40F2E732DA601E4ABB6A536053
:100400001C4B00221A611B4B00229A60194B0022E0
:100410009A61184800F09CFF034687F8333097F83C
:100420003330002B1BD1134800F0EAFF034687F856
:10043000333097F83330002B11D11D2000F097F99D
:100440007B680F2B08D8002279681D2000F073F913
:100450000A4A7B68136002E0012387F8333097F87B
:10046000333018463837BD4680BD00BF001002400B
:1004700083DE1B43800000200004004004000020B5
:1004800080B400AF00BFFDE780B400AF00BFFDE760
:1004900080B400AF00BFFDE780B400AF00BFFDE750
:1004A00080B400AF00BFFDE780B400AF00BFBD4621
:1004B00080BC704780B500AF024800F0F3FF00BF7A
:1004C00080BD00BF8000002080B400AF00BFBD46EB
:1004D00080BC7047FFF7F8FF0B480C490C4A00231B
:1004E00002E0D458C4500433C4188C42F9D3094AEA
:1004F000094C002301E013600432A242FBD303F055
:100500000BFFFFF725FE7047000000206000002071
:10051000C044000860000020EC1B0020FEE7000043
:1005200080B500AF084B1B68074A43F01003136007
:10053000032000F0F5F80F20FFF724FFFFF7EAFE95
:100540000023184680BD00BF0020024080B400AFE9
:10055000054B1B781A46054B1B681344034A13606E
:1005600000BFBD4680BC704708000020C8000020C6
:1005700080B400AF024B1B681846BD4680BC704774
:10058000C800002080B584B000AF7860FFF7F0FFAE
:10059000B8607B68FB60FB68B3F1FF3F05D00A4B96
:1005A0001B781A46FB681344FB6000BFFFF7E0FFAF
:1005B0000246BB68D31AFA689A42F7D800BF00BF58
:1005C0001037BD4680BD00BF0800002080B485B054
:1005D00000AF78607B6803F00703FB600C4BDB68BF
:1005E000BB60BA684FF6FF031340BB60FB681A029A
:1005F000BB68134343F0BF6343F40033BB60044A5A
:10060000BB68D36000BF1437BD4680BC704700BFD5
:1006100000ED00E080B400AF044BDB681B0A03F080
:1006200007031846BD4680BC704700BF00ED00E0E0
:1006300080B483B000AF0346FB7197F90730002BFD
:100640000BDBFB7903F01F02064997F907305B09C2
:10065000012000FA02F241F8232000BF0C37BD460A
:1006600080BC704700E100E080B483B000AF034677
:100670003960FB7197F90730002B0ADB3B68DAB26F
:100680000C4997F907301201D2B20B4483F80023CA
:100690000AE03B68DAB20849FB7903F00F03043B38
:1006A0001201D2B20B441A7600BF0C37BD4680BC93
:1006B000704700BF00E100E000ED00E080B489B0C9
:1006C00000AFF860B9607A60FB6803F00703FB6174
:1006D000FB69C3F10703042B28BF0423BB61FB693B
:1006E0000433062B02D9FB69033B00E000237B6146
:1006F0004FF0FF32BB6902FA03F3DA43BB681A40DA
:100700007B699A404FF0FF317B6901FA03F3D943CB
:100710007B680B40134318462437BD4680BC7047A6
:1007200080B582B000AF78607868FFF74FFF00BFF8
:100730000837BD4680BD80B586B000AF0346B960BE
:100740007A60FB7300237B61FFF764FF78617A684E
:10075000B9687869FFF7B2FF024697F90F30114682
:100760001846FFF781FF00BF1837BD4680BD80B532
:1007700082B000AF0346FB7197F907301846FFF7C8
:1007800057FF00BF0837BD4680BD000080B48BB066
:1007900000AF7860396000237B6200233B6269E12F
:1007A00001227B6A02FA03F3FB613B681B68FA696A
:1007B0001340BB61BA69FB699A4240F058813B68BB
:1007C0005B689A4A93425ED0984A934275D8984A99
:1007D000934258D0964A93426FD8964A934252D049
:1007E000944A934269D8944A93424CD0924A934295
:1007F00063D8924A934246D0904A93425DD8122BD6
:100800002AD8122B59D801A252F823F087080008E1
:100810006108000873080008B5080008BB08000854
:10082000BB080008BB080008BB080008BB0800089C
:10083000BB080008BB080008BB080008BB0800088C
:10084000BB080008BB080008BB080008BB0800087C
:10085000690800087D080008794A934213D02CE00B
:100860003B68DB683B6229E03B68DB6804333B6242
:1008700024E03B68DB6808333B621FE03B68DB68D1
:100880000C333B621AE03B689B68002B02D10423C7
:100890003B6213E03B689B68012B05D108233B6258
:1008A0007B68FA691A6109E008233B627B68FA6990
:1008B0005A6103E000233B6200E000BFBB69FF2BED
:1008C00001D87B6801E07B6804337B61BB69FF2B47
:1008D00002D87B6A9B0002E07B6A083B9B003B617D
:1008E0007B691A680F213B6901FA03F3DB431A4065
:1008F000396A3B6901FA03F31A437B691A603B6862
:100900005B6803F08053002B00F0B1804D4B9B6976
:100910004C4A43F0010393614A4B9B6903F0010386
:10092000BB60BB68484A7B6A9B08023352F823309D
:10093000FB607B6A03F003039B000F2202FA03F3C0
:10094000DB43FA681340FB607B68404A934213D054
:100950007B683F4A93420DD07B683E4A934207D062
:100960007B683D4A934201D1032306E0042304E05F
:10097000022302E0012300E000237A6A02F003026E
:1009800092009340FA681343FB602F497B6A9B08EF
:100990000233FA6841F823203B685B6803F4801354
:1009A000002B06D02D4B9A682C49BB6913438B60F2
:1009B00006E02A4B9A68BB69DB43284913408B60E9
:1009C0003B685B6803F40013002B06D0234BDA6806
:1009D0002249BB691343CB6006E0204BDA68BB6950
:1009E000DB431E491340CB603B685B6803F4003374
:1009F000002B06D0194B5A681849BB6913434B604A
:100A000006E0164B5A68BB69DB43144913404B6040
:100A10003B685B6803F48033002B21D00F4B1A68CE
:100A20000E49BB6913430B6021E000BF0000321088
:100A300000003110000022100000211000001210F0
:100A400000001110001002400000014000080140A9
:100A5000000C01400010014000140140000401405E
:100A60000B4B1A68BB69DB43094913400B607B6A77
:100A700001337B623B681A687B6A22FA03F3002B1E
:100A80007FF48EAE00BF00BF2C37BD4680BC7047E0
:100A90000004014080B483B000AF78600B467B80D7
:100AA00013467B707B78002B03D07A887B681A61B1
:100AB00003E07B881A047B681A6100BF0C37BD46CF
:100AC00080BC704780B485B000AF78600B467B80F7
:100AD0007B68DB68FB607A88FB6813401A04FB685C
:100AE000D9437B880B401A437B681A6100BF1437D7
:100AF000BD4680BC7047000080B586B000AF78600E
:100B00007B68002B01D1012372E27B681B6803F034
:100B10000103002B00F08780924B5B6803F00C030D
:100B2000042B0CD08F4B5B6803F00C03082B12D105
:100B30008C4B5B6803F48033B3F5803F0BD1894B5A
:100B40001B6803F40033002B6CD07B685B68002BC0
:100B500068D101234CE27B685B68B3F5803F06D126
:100B6000804B1B687F4A43F4803313602EE07B6820
:100B70005B68002B0CD17B4B1B687A4A23F48033D3
:100B80001360784B1B68774A23F4802313601DE0C1
:100B90007B685B68B3F5A02F0CD1724B1B68714A60
:100BA00043F4802313606F4B1B686E4A43F4803319
:100BB00013600BE06B4B1B686A4A23F480331360AD
:100BC000684B1B68674A23F4802313607B685B686B
:100BD000002B13D0FFF7CCFC386108E0FFF7C8FC0E
:100BE00002463B69D31A642B01D9032300E25D4B13
:100BF0001B6803F40033002BF0D014E0FFF7B8FCBF
:100C0000386108E0FFF7B4FC02463B69D31A642B55
:100C100001D90323ECE1534B1B6803F40033002B91
:100C2000F0D100E000BF7B681B6803F00203002BDB
:100C300063D04C4B5B6803F00C03002B0BD0494B8B
:100C40005B6803F00C03082B1CD1464B5B6803F474
:100C50008033002B16D1434B1B6803F00203002B9B
:100C600005D07B681B69012B01D00123C0E13D4BFE
:100C70001B6823F0F8027B685B69DB00394913438A
:100C80000B603AE07B681B69002B20D0364B0122B9
:100C90001A60FFF76DFC386108E0FFF769FC024657
:100CA0003B69D31A022B01D90323A1E12D4B1B6809
:100CB00003F00203002BF0D02A4B1B6823F0F8024C
:100CC0007B685B69DB00274913430B6015E0264B0B
:100CD00000221A60FFF74CFC386108E0FFF748FC7F
:100CE00002463B69D31A022B01D9032380E11D4B35
:100CF0001B6803F00203002BF0D17B681B6803F034
:100D00000803002B3AD07B689B69002B19D0174B46
:100D100001221A60FFF72CFC386108E0FFF728FC7D
:100D200002463B69D31A022B01D9032360E10D4B24
:100D30005B6A03F00203002BF0D0012000F0EAFA16
:100D40001CE00A4B00221A60FFF712FC38610FE02A
:100D5000FFF70EFC02463B69D31A022B08D9032386
:100D600046E100BF001002400000424280044242BF
:100D7000924B5B6A03F00203002BE9D17B681B688E
:100D800003F00403002B00F0A6800023FB758B4BBF
:100D9000DB6903F08053002B0DD1884BDB69874A58
:100DA00043F08053D361854BDB6903F08053BB6014
:100DB000BB680123FB75824B1B6803F48073002B17
:100DC00018D17F4B1B687E4A43F480731360FFF792
:100DD000CFFB386108E0FFF7CBFB02463B69D31A33
:100DE000642B01D9032303E1754B1B6803F4807363
:100DF000002BF0D07B68DB68012B06D16F4B1B6AA0
:100E00006E4A43F0010313622DE07B68DB68002B20
:100E10000CD16A4B1B6A694A23F001031362674BCA
:100E20001B6A664A23F0040313621CE07B68DB68DC
:100E3000052B0CD1614B1B6A604A43F0040313621B
:100E40005E4B1B6A5D4A43F0010313620BE05B4B90
:100E50001B6A5A4A23F001031362584B1B6A574A14
:100E600023F0040313627B68DB68002B15D0FFF7C7
:100E70007FFB38610AE0FFF77BFB02463B69D31A30
:100E800041F28832934201D90323B1E04B4B1B6AF4
:100E900003F00203002BEED014E0FFF769FB38618A
:100EA0000AE0FFF765FB02463B69D31A41F288323C
:100EB000934201D903239BE0404B1B6A03F00203DA
:100EC000002BEED1FB7D012B05D13C4BDB693B4A6E
:100ED00023F08053D3617B68DB69002B00F08780AF
:100EE000364B5B6803F00C03082B61D07B68DB6931
:100EF000022B46D1334B00221A60FFF739FB3861D1
:100F000008E0FFF735FB02463B69D31A022B01D9F3
:100F100003236DE0294B1B6803F00073002BF0D115
:100F20007B681B6AB3F5803F08D1244B5B6823F4D0
:100F300000327B689B68214913434B601F4B5B6801
:100F400023F474127B68196A7B685B6A0B431B4944
:100F500013434B601B4B01221A60FFF709FB3861FA
:100F600008E0FFF705FB02463B69D31A022B01D9C3
:100F700003233DE0114B1B6803F00073002BF0D0FE
:100F800035E0104B00221A60FFF7F2FA386108E0F2
:100F9000FFF7EEFA02463B69D31A022B01D903236D
:100FA00026E0064B1B6803F00073002BF0D11EE017
:100FB0007B68DB69012B07D1012319E00010024097
:100FC00000700040600042420B4B5B68FB60FB68B6
:100FD00003F480327B681B6A9A4206D1FB6803F4F3
:100FE00070127B685B6A9A4201D0012300E0002303
:100FF00018461837BD4680BD0010024080B584B049
:1010000000AF786039607B68002B01D10123D0E00C
:101010006A4B1B6803F007033A689A4210D9674B82
:101020001B6823F0070265493B6813430B60634B61
:101030001B6803F007033A689A4201D00123B8E025
:101040007B681B6803F00203002B20D07B681B68C1
:1010500003F00403002B05D0594B5B68584A43F456
:10106000E06353607B681B6803F00803002B05D026
:10107000534B5B68524A43F460535360504B5B6878
:1010800023F0F0027B689B684D4913434B607B68FB
:101090001B6803F00103002B40D07B685B68012BC9
:1010A00007D1474B1B6803F40033002B15D10123F4
:1010B0007FE07B685B68022B07D1414B1B6803F024
:1010C0000073002B09D1012373E03D4B1B6803F033
:1010D0000203002B01D101236BE0394B5B6823F045
:1010E00003027B685B68364913434B60FFF740FAA5
:1010F000F8600AE0FFF73CFA0246FB68D31A41F2B7
:101100008832934201D9032353E02D4B5B6803F0EF
:101110000C027B685B689B009A42EBD1274B1B68F3
:1011200003F007033A689A4210D2244B1B6823F05D
:10113000070222493B6813430B60204B1B6803F0F6
:1011400007033A689A4201D0012332E07B681B68AA
:1011500003F00403002B08D0194B5B6823F4E06212
:101160007B68DB68164913434B607B681B6803F0A0
:101170000803002B09D0124B5B6823F460527B6894
:101180001B69DB000E4913434B6000F021F8024657
:101190000B4B5B681B0903F00F030A49CB5C22FA77
:1011A00003F3094A1360094B1B681846FFF7EAF876
:1011B000002318461037BD4680BD00BF0020024006
:1011C000001002408C4400080000002004000020B1
:1011D00080B487B000AF0023FB600023BB60002316
:1011E0007B6100237B6000233B611E4B5B68FB60DF
:1011F000FB6803F00C03042B02D0082B03D027E07C
:10120000194B3B6127E0FB689B0C03F00F03174A67
:10121000D35C7B60FB6803F48033002B10D0114B50
:101220005B685B0C03F00103114AD35CBB607B6815
:101230000D4A03FB02F2BB68B2FBF3F37B6104E0EF
:101240007B680C4A02FB03F37B617B693B6102E034
:10125000054B3B6100BF3B6918461C37BD4680BC4F
:10126000704700BF0010024000127A00A44400083A
:10127000B444000800093D0080B400AF024B1B6875
:101280001846BD4680BC70470000002080B500AF06
:10129000FFF7F2FF0246054B5B681B0A03F00703EA
:1012A0000349CB5C22FA03F3184680BD00100240CC
:1012B0009C44000880B483B000AF786039607B68DC
:1012C0000F221A60114B5B6803F003027B685A60BF
:1012D0000E4B5B6803F0F0027B689A600B4B5B6817
:1012E00003F4E0627B68DA60084B5B68DB0803F4B8
:1012F000E0627B681A61064B1B6803F007023B68DB
:101300001A6000BF0C37BD4680BC70470010024019
:101310000020024080B485B000AF78600A4B1B68A3
:101320000A4AA2FB03235B0A7A6802FB03F3FB6011
:1013300000BFFB685A1EFA60002BF9D100BF00BF46
:101340001437BD4680BC704700000020D34D6210AA
:1013500080B582B000AF78607B68002B01D101239B
:1013600041E07B6893F83D30DBB2002B06D17B680F
:10137000002283F83C20786800F039F87B6802226C
:1013800083F83D207B681A687B6804331946104651
:1013900000F0B4F97B68012283F846207B680122C3
:1013A00083F83E207B68012283F83F207B6801227E
:1013B00083F840207B68012283F841207B6801226A
:1013C00083F842207B68012283F843207B68012256
:1013D00083F844207B68012283F845207B68012242
:1013E00083F83D20002318460837BD4680BD80B4F1
:1013F00083B000AF786000BF0C37BD4680BC70473B
:1014000080B485B000AF78607B6893F83D30DBB284
:10141000012B01D001233AE07B68022283F83D20B2
:101420007B681B68DA687B681B6842F00102DA603F
:101430007B681B68184A93420ED07B681B68B3F127
:10144000804F09D07B681B68144A934204D07B68A4
:101450001B68134A934211D17B681B689B6803F099
:101460000703FB60FB68062B10D07B681B681A68BB
:101470007B681B6842F001021A6007E07B681B680A
:101480001A687B681B6842F001021A600023184644
:101490001437BD4680BC7047002C0140000400405A
:1014A0000008004080B582B000AF78607B681B68A0
:1014B0001B6903F00203022B22D17B681B68DB68E7
:1014C00003F00203022B1BD17B681B686FF0020242
:1014D0001A617B6801221A777B681B689B6903F09D
:1014E0000303002B03D0786800F0EDF805E078687E
:1014F00000F0E0F8786800F0EFF87B6800221A77D7
:101500007B681B681B6903F00403042B22D17B68F2
:101510001B68DB6803F00403042B1BD17B681B688A
:101520006FF004021A617B6802221A777B681B68DD
:101530009B6903F44073002B03D0786800F0C3F874
:1015400005E0786800F0B6F8786800F0C5F87B68C8
:1015500000221A777B681B681B6903F00803082BBD
:1015600022D17B681B68DB6803F00803082B1BD1C2
:101570007B681B686FF008021A617B6804221A7787
:101580007B681B68DB6903F00303002B03D07868DA
:1015900000F099F805E0786800F08CF8786800F0C1
:1015A0009BF87B6800221A777B681B681B6903F035
:1015B0001003102B22D17B681B68DB6803F010033B
:1015C000102B1BD17B681B686FF010021A617B68BF
:1015D00008221A777B681B68DB6903F44073002BD1
:1015E00003D0786800F06FF805E0786800F062F8E2
:1015F000786800F071F87B6800221A777B681B68B6
:101600001B6903F00103012B0ED17B681B68DB68AB
:1016100003F00103012B07D17B681B686FF0010207
:101620001A617868FEF75EFE7B681B681B6903F031
:101630008003802B0ED17B681B68DB6803F080037E
:10164000802B07D17B681B686FF080021A61786875
:1016500000F0BFF87B681B681B6903F04003402B58
:101660000ED17B681B68DB6803F04003402B07D179
:101670007B681B686FF040021A61786800F035F8EB
:101680007B681B681B6903F02003202B0ED17B684D
:101690001B68DB6803F02003202B07D17B681B68E5
:1016A0006FF020021A61786800F08AF800BF0837EE
:1016B000BD4680BD80B483B000AF786000BF0C37FA
:1016C000BD4680BC704780B483B000AF786000BF77
:1016D0000C37BD4680BC704780B483B000AF7860E3
:1016E00000BF0C37BD4680BC704780B483B000AFEC
:1016F000786000BF0C37BD4680BC704780B485B0B1
:1017000000AF786039607B681B68FB607B68294AA2
:1017100093420BD07B68B3F1804F07D07B68264A99
:10172000934203D07B68254A934208D1FB6823F09B
:101730007003FB603B685B68FA681343FB607B687F
:101740001C4A93420BD07B68B3F1804F07D07B6873
:10175000194A934203D07B68184A934208D1FB6828
:1017600023F44073FB603B68DB68FA681343FB605B
:10177000FB6823F080023B685B691343FB607B6876
:10178000FA681A603B689A687B68DA623B681A6894
:101790007B689A627B68074A934203D13B681A6967
:1017A0007B681A637B6801225A6100BF1437BD460B
:1017B00080BC7047002C014000040040000800403D
:1017C00080B483B000AF786000BF0C37BD4680BCEA
:1017D000704780B483B000AF786000BF0C37BD465F
:1017E00080BC704780B485B000AFEFF30583BB6069
:1017F000BB68002B0FD1EFF310837B607B68002B5D
:1018000009D1104B1B68022B09D1EFF311833B6008
:101810003B68002B03D06FF00503FB600CE0094B25
:101820001B68002B05D1074B01221A600023FB60C7
:1018300002E04FF0FF33FB60FB6818461437BD46EB
:1018400080BC7047CC00002080B584B000AFEFF3BF
:101850000583BB60BB68002B0FD1EFF310837B6067
:101860007B68002B09D1114B1B68022B09D1EFF3C8
:1018700011833B603B68002B03D06FF00503FB60D6
:101880000EE00A4B1B68012B07D1084B02221A609D
:1018900001F0A8F80023FB6002E04FF0FF33FB608B
:1018A000FB6818461037BD4680BD00BFCC00002045
:1018B00080B592B004AFF860B9607A6000237B61B4
:1018C000EFF305837B627B6A002B40F09480EFF39B
:1018D00010833B623B6A002B40F08D80484B1B68B5
:1018E000022B06D1EFF31183FB61FB69002B40F063
:1018F0008280FB68002B7ED080233B631823FB6231
:101900000023FB7607F11B037B634FF0FF33BB62C1
:101910007B68002B45D07B681B68002B02D07B685E
:101920001B687B637B689B69002B02D07B689B698B
:10193000FB62FB6A002B08D0FB6A382B05D87B685A
:101940005B6803F00103002B01D0002354E07B68A7
:101950005B69002B03D07B685B699B083B637B68FA
:101960009B68002B0ED07B68DB68A72B0AD97B68AD
:101970001B69002B06D07B685B69002B02D001231A
:10198000BB6210E07B689B68002B0CD17B68DB6836
:10199000002B08D17B681B69002B04D10023BB629C
:1019A00001E00023BB62BB6A012B10D17B681B697D
:1019B0007A68926802920193FB6A0093BB683A6B63
:1019C000796BF86800F024FE03467B6113E0BB6A84
:1019D000002B10D13B6B9AB207F114030193FB6A01
:1019E0000093BB68796BF86800F071FE0346012B29
:1019F00001D000237B617B6918463837BD4680BD26
:101A0000CC00002080B586B000AF7860EFF305838E
:101A10003B613B69002B0FD1EFF31083FB60FB6848
:101A2000002B09D10D4B1B68022B09D1EFF3118359
:101A3000BB60BB68002B03D06FF005037B6107E040
:101A400000237B617B68002B02D0786800F094FF54
:101A50007B6918461837BD4680BD00BFCC0000200A
:101A600080B485B000AFF860B9607A60FB68064A60
:101A70001A60BB68054A1A607B6880221A6000BF42
:101A80001437BD4680BC7047D0000020780100208C
:101A900080B485B000AFF860B9607A60FB68074A2F
:101AA0001A60BB68064A1A607B684FF480721A603D
:101AB00000BF1437BD4680BC704700BF78030020CC
:101AC0002004002080B483B000AF78607B6803F10D
:101AD00008027B685A607B684FF0FF329A607B682F
:101AE00003F108027B68DA607B6803F108027B6817
:101AF0001A617B6800221A6000BF0C37BD4680BCAB
:101B0000704780B483B000AF78607B6800221A61B0
:101B100000BF0C37BD4680BC704780B485B000AFB5
:101B2000786039607B685B68FB603B68FA685A6084
:101B3000FB689A683B689A60FB689B683A685A60E1
:101B4000FB683A689A603B687A681A617B681B6830
:101B50005A1C7B681A6000BF1437BD4680BC7047B2
:101B600080B485B000AF786039603B681B68BB60AB
:101B7000BB68B3F1FF3F03D17B681B69FB600CE0DE
:101B80007B680833FB6002E0FB685B68FB60FB6816
:101B90005B681B68BA689A42F6D2FB685A683B6871
:101BA0005A603B685B683A689A603B68FA689A607A
:101BB000FB683A685A603B687A681A617B681B6800
:101BC0005A1C7B681A6000BF1437BD4680BC704742
:101BD00080B485B000AF78607B681B69FB607B6870
:101BE0005B687A6892689A607B689B687A685268DA
:101BF0005A60FB685B687A689A4203D17B689A688E
:101C0000FB685A607B6800221A61FB681B685A1ED9
:101C1000FB681A60FB681B6818461437BD4680BC19
:101C20007047000080B584B000AF786039607B6891
:101C3000FB60FB68002B0BD14FF0500383F311883E
:101C4000BFF36F8FBFF34F8FBB6000BF00BFFDE7D7
:101C500002F024F8FB681A68FB68DB6BF968096C12
:101C600001FB03F31A44FB685A60FB6800229A6385
:101C7000FB681A68FB689A60FB681A68FB68DB6B94
:101C8000013BF968096C01FB03F31A44FB68DA6055
:101C9000FB68FF2283F84420FB68FF2283F845207D
:101CA0003B68002B14D1FB681B69002B1AD0FB6822
:101CB0001033184601F036F90346002B12D00D4BB5
:101CC0004FF080521A60BFF34F8FBFF36F8F09E060
:101CD000FB6810331846FFF7F5FEFB6824331846FF
:101CE000FFF7F0FE02F00AF8012318461037BD4650
:101CF00080BD00BF04ED00E080B58EB002AFF8609B
:101D0000B9607A603B60FB68002B0BD14FF0500349
:101D100083F31188BFF36F8FBFF34F8FBB6200BF98
:101D200000BFFDE73B68002B0BD14FF0500383F35E
:101D30001188BFF36F8FBFF34F8F7B6200BF00BF6F
:101D4000FDE77B68002B02D0BB68002B01D001238C
:101D500000E00023002B0BD14FF0500383F31188D8
:101D6000BFF36F8FBFF34F8F3B6200BF00BFFDE734
:101D70007B68002B02D1BB68002B01D1012300E05E
:101D80000023002B0BD14FF0500383F31188BFF3D6
:101D90006F8FBFF34F8FFB6100BF00BFFDE7502384
:101DA0007B617B69502B0BD04FF0500383F311887C
:101DB000BFF36F8FBFF34F8FBB6100BF00BFFDE765
:101DC0003B68FB62FB6A002B0DD0FB6A012283F8A3
:101DD000462097F83820FB6A009313467A68B96862
:101DE000F86800F005F8FB6A18463037BD4680BD3C
:101DF00080B584B000AFF860B9607A60FB70BB68F2
:101E0000002B03D1BB69BA691A6002E0BB697A682A
:101E10001A60BB69FA68DA63BB69BA681A6401219F
:101E2000B869FFF7FFFEBB69FA7883F84C2000BF62
:101E30001037BD4680BD000080B58EB000AFF860A1
:101E4000B9607A603B6000237B63FB683B633B6B5C
:101E5000002B0BD14FF0500383F31188BFF36F8F2A
:101E6000BFF34F8FBB6200BF00BFFDE7BB68002B15
:101E700003D13B6B1B6C002B01D1012300E000233D
:101E8000002B0BD14FF0500383F31188BFF36F8FFA
:101E9000BFF34F8F7B6200BF00BFFDE73B68022BA3
:101EA00003D13B6BDB6B012B01D1012300E000234D
:101EB000002B0BD14FF0500383F31188BFF36F8FCA
:101EC000BFF34F8F3B6200BF00BFFDE701F0F4F9A5
:101ED0000346002B02D17B68002B01D1012300E0D7
:101EE0000023002B0BD14FF0500383F31188BFF375
:101EF0006F8FBFF34F8FFB6100BF00BFFDE701F0A5
:101F0000CDFE3B6B9A6B3B6BDB6B9A4202D33B681B
:101F1000022B29D13A68B968386B00F00DFAF862E3
:101F20003B6B5B6A002B10D03B6B2433184600F0F0
:101F3000F9FF0346002B13D03F4B4FF080521A603D
:101F4000BFF34F8FBFF36F8F0AE0FB6A002B07D000
:101F5000394B4FF080521A60BFF34F8FBFF36F8F32
:101F600001F0CCFE012363E07B68002B03D101F07C
:101F7000C5FE00235CE07B6B002B06D107F1140348
:101F8000184601F033F801237B6301F0B7FE00F03F
:101F900099FD01F083FE3B6B93F844305BB2B3F1E3
:101FA000FF3F03D13B6B002283F844203B6B93F847
:101FB00045305BB2B3F1FF3F03D13B6B002283F8A6
:101FC000452001F09BFE3A1D07F114031146184607
:101FD00001F022F80346002B24D1386B00F0A4FA5C
:101FE0000346002B18D03B6B10337A681146184615
:101FF00000F046FF386B00F02FFA00F071FD034649
:10200000002B7FF47CAF0C4B4FF080521A60BFF373
:102010004F8FBFF36F8F72E7386B00F01DFA00F03F
:102020005FFD6CE7386B00F017FA00F059FD0023F4
:1020300018463837BD4680BD04ED00E080B58EB04F
:1020400000AFF860B9607A603B60FB683B633B6B54
:10205000002B0BD14FF0500383F31188BFF36F8F28
:10206000BFF34F8F7B6200BF00BFFDE7BB68002B53
:1020700003D13B6B1B6C002B01D1012300E000233B
:10208000002B0BD14FF0500383F31188BFF36F8FF8
:10209000BFF34F8F3B6200BF00BFFDE73B68022BE1
:1020A00003D13B6BDB6B012B01D1012300E000234B
:1020B000002B0BD14FF0500383F31188BFF36F8FC8
:1020C000BFF34F8FFB6100BF00BFFDE701F0A8FE2B
:1020D000EFF311824FF0500383F31188BFF36F8F3A
:1020E000BFF34F8FBA617B61BB69FB623B6B9A6B3D
:1020F0003B6BDB6B9A4202D33B68022B2CD13B6BD0
:1021000093F8453087F82B303A68B968386B00F09F
:1021100013F997F92B30B3F1FF3F12D13B6B5B6A98
:10212000002B16D03B6B2433184600F0FBFE034611
:10213000002B0ED07B68002B0BD07B6801221A602D
:1021400007E097F82B300133DBB25AB23B6B83F8D0
:10215000452001237B6301E000237B63FB6A3B6135
:102160003B6983F3118800BF7B6B18463837BD4647
:1021700080BD000080B58CB000AFF860B9607A60B7
:102180000023FB62FB68BB62BB6A002B0BD14FF0E4
:10219000500383F31188BFF36F8FBFF34F8F3B6200
:1021A00000BF00BFFDE7BB68002B03D1BB6A1B6CFF
:1021B000002B01D1012300E00023002B0BD14FF0B5
:1021C000500383F31188BFF36F8FBFF34F8FFB6111
:1021D00000BF00BFFDE701F06FF80346002B02D1FE
:1021E0007B68002B01D1012300E00023002B0BD1E1
:1021F0004FF0500383F31188BFF36F8FBFF34F8FFE
:10220000BB6100BF00BFFDE701F048FDBB6A9B6BEF
:102210007B627B6A002B1FD0B968B86A00F0F6F8C1
:102220007B6A5A1EBB6A9A63BB6A1B69002B0FD07C
:10223000BB6A1033184600F075FE0346002B07D02A
:102240003C4B4FF080521A60BFF34F8FBFF36F8F3C
:1022500001F054FD012369E07B68002B03D101F0FC
:102260004DFD002362E0FB6A002B06D107F110034D
:10227000184600F0BBFE0123FB6201F03FFD00F0B9
:1022800021FC01F00BFDBB6A93F844305BB2B3F163
:10229000FF3F03D1BB6A002283F84420BB6A93F856
:1022A00045305BB2B3F1FF3F03D1BB6A002283F834
:1022B000452001F023FD3A1D07F110031146184691
:1022C00000F0AAFE0346002B23D1B86A00F016F9ED
:1022D0000346002B17D0BB6A24337A681146184690
:1022E00000F0CEFDB86A00F0B7F800F0F9FB034645
:1022F000002B89D10F4B4FF080521A60BFF34F8FE4
:10230000BFF36F8F80E7B86A00F0A6F800F0E8FB33
:102310007AE7B86A00F0A0F800F0E2FBB86A00F0D3
:10232000EDF80346002B3FF46FAF0023184630371B
:10233000BD4680BD04ED00E080B586B000AFF8601A
:10234000B9607A6000237B61FB689B6B3B61FB6833
:102350001B6C002B0DD1FB681B68002B4DD1FB685B
:102360005B68184600F0C6FF7861FB6800225A607F
:1023700043E07B68002B19D1FB689868FB681B6CF5
:102380001A46B96801F0EEFFFB689A68FB681B6C9F
:102390001A44FB689A60FB689A68FB685B689A421B
:1023A0002BD3FB681A68FB689A6026E0FB68D86844
:1023B000FB681B6C1A46B96801F0D4FFFB68DA6849
:1023C000FB681B6C5B421A44FB68DA60FB68DA68E6
:1023D000FB681B689A4207D2FB685A68FB681B6C53
:1023E0005B421A44FB68DA607B68022B05D13B69CB
:1023F000002B02D03B69013B3B613B695A1CFB68E7
:102400009A637B6918461837BD4680BD80B582B097
:1024100000AF786039607B681B6C002B18D07B683C
:10242000DA687B681B6C1A447B68DA607B68DA6860
:102430007B685B689A4203D37B681A687B68DA60C2
:102440007B68D9687B681B6C1A46386801F08AFF84
:1024500000BF0837BD4680BD80B584B000AF78604E
:1024600001F01CFC7B6893F84530FB7311E07B683E
:102470005B6A002B12D07B682433184600F052FDB3
:102480000346002B01D000F02BFEFB7B013BDBB2AF
:10249000FB7397F90F30002BE9DC00E000BF7B688D
:1024A000FF2283F8452001F029FC01F0F7FB7B684F
:1024B00093F84430BB7311E07B681B69002B12D08A
:1024C0007B681033184600F02DFD0346002B01D029
:1024D00000F006FEBB7B013BDBB2BB7397F90E300D
:1024E000002BE9DC00E000BF7B68FF2283F844207A
:1024F00001F004FC00BF1037BD4680BD80B584B03C
:1025000000AF786001F0CAFB7B689B6B002B02D1A7
:102510000123FB6001E00023FB6001F0EFFBFB689F
:1025200018461037BD4680BD80B584B000AF7860D6
:1025300001F0B4FB7B689A6B7B68DB6B9A4202D13B
:102540000123FB6001E00023FB6001F0D7FBFB6887
:1025500018461037BD4680BD80B485B000AF7860A6
:1025600039600023FB6014E00E4AFB6852F83330F8
:10257000002B0BD10B49FB683A6841F83320094A1C
:10258000FB68DB0013447A685A6006E0FB6801339D
:10259000FB60FB68072BE7D900BF00BF1437BD46BF
:1025A00080BC70472008002080B586B000AFF8607E
:1025B000B9607A60FB687B6101F070FB7B6993F81E
:1025C00044305BB2B3F1FF3F03D17B69002283F853
:1025D00044207B6993F845305BB2B3F1FF3F03D1F0
:1025E0007B69002283F8452001F088FB7B699B6BA7
:1025F000002B06D17B6924337A68B968184600F04D
:1026000065FC7869FFF728FF00BF1837BD4680BD1D
:1026100080B58EB004AFF860B9607A603B607B6BC8
:10262000002B0BD14FF0500383F31188BFF36F8F52
:10263000BFF34F8F3B6200BF00BFFDE7BB6B002BBA
:102640000BD14FF0500383F31188BFF36F8FBFF3AB
:102650004F8FFB6100BF00BFFDE7A8233B613B69D3
:10266000A82B0BD04FF0500383F31188BFF36F8F6B
:10267000BFF34F8FBB6100BF00BFFDE7BB6B002BFB
:102680001ED07B6B002B1BD0BB6B7B627B6A7A6B93
:102690001A637B6A022283F8A520002303937B6AD6
:1026A000029307F1140301933B6B00933B687A6834
:1026B000B968F86800F050F8786A00F0EDF801E0C9
:1026C00000237B617B6918462837BD4680BD80B5F5
:1026D0008CB004AFF860B9603B601346FB80FB88A8
:1026E0009B00184601F0DCFB78617B69002B0ED063
:1026F000A82001F0D5FBF861FB69002B03D0FB6932
:102700007A691A6305E0786901F092FC01E0002320
:10271000FB61FB69002B17D0FB69002283F8A52021
:10272000FA8800230393FB690293FB6A0193BB6A57
:1027300000933B68B968F86800F00EF8F86900F09B
:10274000ABF80123BB6102E04FF0FF33BB61BB6913
:1027500018462037BD4680BD80B588B000AFF86010
:10276000B9607A603B603B6B186B7B689B001A46D4
:10277000A52101F073FD3B6B1A6B7B6803F180436D
:10278000013B9B001344BB61BB6923F00703BB61A2
:10279000BB6903F00703002B0BD04FF0500383F30A
:1027A0001188BFF36F8FBFF34F8F7B6100BF00BFF6
:1027B000FDE70023FB6112E0BA68FB691344197856
:1027C0003A6BFB69134434330A461A70BA68FB69E2
:1027D00013441B78002B06D0FB690133FB61FB69B6
:1027E0000F2BE9D900E000BF3B6B002283F84320A8
:1027F000BB6A372B01D93723BB623B6BBA6ADA62FB
:102800003B6BBA6ADA643B6B00221A653B6B04339C
:102810001846FFF776F93B6B18331846FFF771F946
:102820003B6B3A6B1A61BB6AC3F138023B6B9A612E
:102830003B6B3A6B5A623B6B0022C3F8A0203B6BA8
:10284000002283F8A4203B6B54334C22002118460D
:1028500001F004FD3B6B0D4A9A653B6B0C4ADA654F
:102860003B6B0C4A1A663A68F968B86901F026F9B8
:1028700002463B6B1A60FB6A002B02D0FB6A3A6B84
:102880001A6000BF2037BD4680BD00BFAC1A0020D3
:10289000141B00207C1B002080B582B000AF786044
:1028A00001F0FCF92D4B1B6801332C4A13602C4BB3
:1028B0001B68002B09D12A4A7B681360274B1B68D1
:1028C000012B10D100F030FC0DE0264B1B68002BD3
:1028D00009D1234B1B68DA6A7B68DB6A9A4202D80B
:1028E0001F4A7B681360204B1B6801331E4A13602C
:1028F0001D4B1A687B685A647B68DA6A1B4B1B683D
:102900009A4203D97B68DB6A184A13607B68DA6AEB
:1029100013469B0013449B00154A1A447B680433FA
:1029200019461046FFF7F9F801F0E8F90D4B1B685E
:10293000002B0ED00A4B1B68DA6A7B68DB6A9A426E
:1029400007D20C4B4FF080521A60BFF34F8FBFF38A
:102950006F8F00BF0837BD4680BD00BF340D00201B
:1029600060080020400D0020500D00203C0D00208C
:102970006408002004ED00E080B584B000AF78600A
:102980000023FB607B68002B18D0144B1B68002BC6
:102990000BD04FF0500383F31188BFF36F8FBFF359
:1029A0004F8FBB6000BF00BFFDE700F08BF8002138
:1029B000786800F00FFD00F093F8F860FB68002BDA
:1029C00007D1074B4FF080521A60BFF34F8FBFF310
:1029D0006F8F00BF1037BD4680BD00BF5C0D00206B
:1029E00004ED00E080B58AB004AF0023BB60002393
:1029F0007B603A46391D07F108031846FFF730F8A7
:102A000039687B68BA68029201930023009300231F
:102A10000A4624492448FFF7FBFD0346234A136076
:102A2000224B1B68002B02D001237B6101E00023B5
:102A30007B617B69012B02D100F020FD78617B690D
:102A4000012B1BD14FF0500383F31188BFF36F8F1D
:102A5000BFF34F8F3B6100BF154B1B685433154AC2
:102A60001360154B4FF0FF321A60144B01221A60AD
:102A7000134B00221A6001F09FF80FE07B69B3F15D
:102A8000FF3F0BD14FF0500383F31188BFF36F8FDB
:102A9000BFF34F8FFB6000BF00BFFDE700BF1837DB
:102AA000BD4680BD50440008F9300008580D002094
:102AB0006008002010000020540D0020400D002070
:102AC000380D002080B400AF044B1B680133034A6B
:102AD000136000BFBD4680BC704700BF5C0D002086
:102AE00080B584B000AF0023FB600023BB60424B85
:102AF0001B68002B0BD14FF0500383F31188BFF3F9
:102B00006F8FBFF34F8F3B6000BF00BFFDE701F049
:102B1000C5F8394B1B68013B374A1360364B1B68BD
:102B2000002B62D1354B1B68002B5ED02FE0344B5D
:102B3000DB68DB68FB60FB6818331846FFF748F872
:102B4000FB6804331846FFF743F8FB68DA6A2D4B3D
:102B50001B689A4203D9FB68DB6A2A4A1360FB6848
:102B6000DA6A13469B0013449B00274A1A44FB6809
:102B7000043319461046FEF7D0FFFB68DA6A234B90
:102B80001B68DB6A9A4202D3214B01221A601C4B5C
:102B90001B68002BCBD1FB68002B01D000F068FB39
:102BA0001C4B1B687B607B68002B10D000F044F846
:102BB0000346002B02D0164B01221A607B68013BB2
:102BC0007B607B68002BF1D1124B00221A60104B06
:102BD0001B68002B09D00123BB600F4B4FF08052C4
:102BE0001A60BFF34F8FBFF36F8F01F087F8BB6898
:102BF00018461037BD4680BD5C0D0020340D002006
:102C0000F40C00203C0D0020640800206008002027
:102C1000480D0020440D002004ED00E080B483B096
:102C200000AF044B1B687B607B6818460C37BD46C1
:102C300080BC7047380D002080B586B000AF0023FF
:102C40007B61524B1B68002B40F08F80504B1B6800
:102C500001333B614E4A3B6913603B69002B21D134
:102C60004C4B1B681B68002B0BD04FF0500383F3B9
:102C70001188BFF36F8FBFF34F8F3B6000BF00BF62
:102C8000FDE7444B1B68FB60434B1B68414A1360E4
:102C9000414AFB681360414B1B6801333F4A136094
:102CA00000F0E6FA3E4B1B683A699A424ED3394B24
:102CB0001B681B68002B01D1012300E00023002BBF
:102CC00004D0374B4FF0FF321A603FE0314B1B68A6
:102CD000DB68DB68BB60BB685B687B603A697B680C
:102CE0009A4203D22E4A7B6813602FE0BB680433FC
:102CF0001846FEF76DFFBB689B6A002B04D0BB68CB
:102D000018331846FEF764FFBB68DA6A254B1B6868
:102D10009A4203D9BB68DB6A224A1360BB68DA6A4D
:102D200013469B0013449B001F4A1A44BB6804339C
:102D300019461046FEF7F1FEBB68DA6A1B4B1B68AA
:102D4000DB6A9A42B3D301237B61B0E7174B1B6860
:102D5000DA6A154913469B0013449B000B441B6819
:102D6000012B07D901237B6104E0114B1B68013360
:102D70000F4A13600F4B1B68002B01D001237B61AE
:102D80007B6918461837BD4680BD00BF5C0D00202A
:102D9000380D0020EC0C0020F00C00204C0D002021
:102DA000540D00203C0D0020640800206008002025
:102DB000440D0020480D002080B485B000AF2A4BA0
:102DC0001B68002B03D0294B01221A6047E0274BD8
:102DD00000221A60264B1B68FB6011E0FB68002B89
:102DE0000BD14FF0500383F31188BFF36F8FBFF304
:102DF0004F8F7B6000BF00BFFDE7FB68013BFB60BE
:102E00001C49FA6813469B0013449B000B441B6843
:102E1000002BE3D0FA6813469B0013449B00154A2D
:102E20001344BB60BB685B685A68BB685A60BB6888
:102E30005A68BB6808339A4204D1BB685B685A6819
:102E4000BB685A60BB685B68DB680B4A1360084A62
:102E5000FB681360084B1B685433084A136000BFBB
:102E60001437BD4680BC70475C0D0020480D002023
:102E70003C0D0020640800206008002010000020A5
:102E800080B584B000AF786039607B68002B0BD1CF
:102E90004FF0500383F31188BFF36F8FBFF34F8F51
:102EA000FB6000BF00BFFDE7074B1B6818331946E6
:102EB0007868FEF755FE0121386800F08BFA00BFF4
:102EC0001037BD4680BD00BF6008002080B586B0C9
:102ED00000AFF860B9607A60FB68002B0BD14FF04F
:102EE000500383F31188BFF36F8FBFF34F8F7B6164
:102EF00000BF00BFFDE70A4B1B6818331946F8688E
:102F0000FEF70BFE7B68002B02D04FF0FF33BB6057
:102F10007968B86800F05EFA00BF1837BD4680BD1A
:102F20006008002080B586B000AF78607B68DB6801
:102F3000DB683B613B69002B0BD14FF0500383F3FF
:102F40001188BFF36F8FBFF34F8FFB6000BF00BFCF
:102F5000FDE73B6918331846FEF73AFE1D4B1B6828
:102F6000002B1DD13B6904331846FEF731FE3B6947
:102F7000DA6A194B1B689A4203D93B69DB6A164A25
:102F800013603B69DA6A13469B0013449B00134AA3
:102F90001A443B69043319461046FEF7BEFD05E0AE
:102FA0003B69183319460E48FEF7B7FD3B69DA6AEC
:102FB0000C4B1B68DB6A9A4205D901237B610A4BE3
:102FC00001221A6001E000237B617B6918461837F3
:102FD000BD4680BD5C0D00203C0D00206408002033
:102FE000F40C002060080020480D002080B483B05D
:102FF00000AF7860064B1A687B681A60054B1A6848
:103000007B685A6000BF0C37BD4680BC704700BF6C
:103010004C0D0020380D002080B588B000AF7860DE
:1030200039607B68002B0BD14FF0500383F311887C
:10303000BFF36F8FBFF34F8F3B6100BF00BFFDE752
:103040003B68002B0BD14FF0500383F31188BFF383
:103050006F8FBFF34F8FFB6000BF00BFFDE700F035
:103060001DFE1D4B1B68BB617B685B68BA69D31A88
:103070007B613B681B68B3F1FF3F02D10023FB611A
:1030800023E07B681A68154B1B689A4207D07B685F
:103090005B68BA699A4202D30123FB6115E03B6881
:1030A0001B687A699A420BD23B681A687B69D21A0C
:1030B0003B681A607868FFF799FF0023FB6104E022
:1030C0003B6800221A600123FB6100F017FEFB69D8
:1030D00018462037BD4680BD380D00204C0D00201D
:1030E00080B400AF034B01221A6000BFBD4680BC14
:1030F000704700BF480D002080B582B000AF7860F7
:1031000000F052F8064B1B68012BF9D9054B4FF024
:1031100080521A60BFF34F8FBFF36F8FF0E700BF8D
:103120006408002004ED00E080B582B000AF002309
:103130007B600CE07A6813469B0013449B00124AA4
:1031400013441846FEF7BEFC7B6801337B607B6846
:10315000372BEFD90D48FEF7B5FC0D48FEF7B2FC52
:103160000C48FEF7AFFC0C48FEF7ACFC0B48FEF732
:10317000A9FC0B4B054A1A600A4B054A1A6000BFAE
:103180000837BD4680BD00BF64080020C40C002085
:10319000D80C0020F40C0020080D0020200D002089
:1031A000EC0C0020F00C002080B582B000AF19E0DC
:1031B00000F074FD104BDB68DB687B607B680433D8
:1031C0001846FEF705FD0D4B1B68013B0B4A1360CB
:1031D0000B4B1B68013B0A4A136000F08FFD7868B7
:1031E00000F010F8064B1B68002BE1D100BF00BFB8
:1031F0000837BD4680BD00BF080D0020340D0020FB
:103200001C0D002080B584B000AF78607B6854331B
:10321000184601F02BF87B6893F8A530002B08D1F5
:103220007B681B6B184600F003FF786800F000FF16
:1032300019E07B6893F8A530012B03D1786800F082
:10324000F7FE10E07B6893F8A530022B0BD04FF00F
:10325000500383F31188BFF36F8FBFF34F8FFB6071
:1032600000BF00BFFDE700BF1037BD4680BD0000B6
:1032700080B483B000AF0E4B1B681B68002B01D1DC
:10328000012300E00023002B04D00A4B4FF0FF3253
:103290001A6008E0064B1B68DB68DB687B607B68B4
:1032A0005B68044A136000BF0C37BD4680BC7047A2
:1032B000EC0C0020540D002080B483B000AF0B4B09
:1032C0001B68002B02D101237B6008E0084B1B68C0
:1032D000002B02D102237B6001E000237B607B682E
:1032E00018460C37BD4680BC704700BF400D00201B
:1032F0005C0D002080B586B000AF78607B683B61D4
:1033000000237B617B68002B58D02F4B1B683A69E8
:103310009A420BD04FF0500383F31188BFF36F8FA5
:10332000BFF34F8FFB6000BF00BFFDE73B691B6D24
:10333000002B0BD14FF0500383F31188BFF36F8F35
:10334000BFF34F8FBB6000BF00BFFDE73B691B6D44
:103350005A1E3B691A653B69DA6A3B69DB6C9A4223
:103360002CD03B691B6D002B28D13B6904331846D8
:10337000FEF72EFC3B69DA6C3B69DA623B69DB6A7B
:10338000C3F138023B699A613B69DA6A0F4B1B68EB
:103390009A4203D93B69DB6A0C4A13603B69DA6ADB
:1033A00013469B0013449B00094A1A443B690433AB
:1033B00019461046FEF7B1FB01237B617B69184675
:1033C0001837BD4680BD00BF600800203C0D0020BE
:1033D0006408002080B584B000AF78603960214B6C
:1033E0001B68FB60204B1B6804331846FEF7F0FB9C
:1033F0007B68B3F1FF3F0AD13B68002B07D01A4B23
:103400001B68043319461948FEF787FB26E0FA6863
:103410007B681344BB60144B1B68BA685A60BA6877
:10342000FB689A4209D2124B1A680F4B1B6804338F
:1034300019461046FEF794FB10E00E4B1A680A4B33
:103440001B68043319461046FEF78AFB0A4B1B68BB
:10345000BA689A4202D2084ABB68136000BF1037AC
:10346000BD4680BD380D002060080020200D0020E2
:10347000F00C0020EC0C0020540D002080B58AB028
:1034800004AF00237B6100F0D9FA1D4B1B68002BB1
:1034900021D00023FB600023BB603A1D07F1080127
:1034A00007F10C031846FEF7F3FA7968BB68FA686F
:1034B000029201930223009300230A461149124805
:1034C000FFF7A6F80346114A1360104B1B68002B48
:1034D00001D001237B617B69002B0BD14FF050039E
:1034E00083F31188BFF36F8FBFF34F8F3B6100BF32
:1034F00000BFFDE77B6918461837BD4680BD00BF99
:10350000900D00205844000831360008940D00202A
:1035100080B58AB000AFF860B9607A603B60002384
:103520007B62FB68002B0BD14FF0500383F31188B3
:10353000BFF36F8FBFF34F8F3B6200BF00BFFDE74C
:10354000194B1B68002B2AD0BB683B617B687B61F1
:10355000FB68BB61BB68052B18DCFFF7ADFE0346BB
:10356000022B09D1104B186807F1100100233A6BA8
:10357000FEF762FC786212E00B4B186807F110014D
:1035800000230022FEF758FC786208E0064B18681A
:1035900007F1100100233A68FEF750FD78627B6A5C
:1035A00018462837BD4680BD900D002080B588B0F4
:1035B00002AF786039601D4B1B68DB68DB687B619C
:1035C0007B6904331846FEF703FB7B69DB69012B3B
:1035D00023D17B699A697B68D1187B683A687869DE
:1035E00000F0CCF80346002B17D0002300930023F3
:1035F0007A6800217869FFF78BFF38613B69002BFF
:103600000BD14FF0500383F31188BFF36F8FBFF3DB
:103610004F8FFB6000BF00BFFDE77B695B6A786985
:10362000984700BF1837BD4680BD00BF880D0020F9
:1036300080B584B000AF786007F10803184600F049
:1036400059F8F860BB681946F86800F005F800F012
:10365000D7F800BFF0E7000080B584B000AF786015
:103660003960FFF72FFA07F10803184600F066F8F3
:10367000F860BB68002B30D13B68002B0AD17A6818
:10368000FB689A4206D8FFF72BFAF9687868FFF7CB
:103690008DFF24E03B68002B08D0134B1B681B6890
:1036A000002B0CBF01230023DBB23B600F4B1868DB
:1036B0007A68FB68D31A3A681946FEF775FFFFF778
:1036C0000FFA0346002B0AD1094B4FF080521A60C3
:1036D000BFF34F8FBFF36F8F01E0FFF701FA00BF19
:1036E0001037BD4680BD00BF8C0D0020900D00201E
:1036F00004ED00E080B485B000AF78600E4B1B682D
:103700001B68002B0CBF01230023DBB21A467B6829
:103710001A607B681B68002B05D1074B1B68DB68B0
:103720001B68FB6001E00023FB60FB681846143750
:10373000BD4680BC704700BF880D002080B584B0B6
:1037400000AF7860FFF76AFAF8600B4B1B68FA6805
:103750009A4205D200F010F97B6801221A6002E05B
:103760007B6800221A60044AFB681360FB681846F5
:103770001037BD4680BD00BF980D002080B586B0D3
:1037800000AFF860B9607A603B6000237B61FB6842
:10379000BA685A60FB68FA681A61BA687B689A422C
:1037A00012D87A683B68D21AFB689B699A4202D3A6
:1037B00001237B611BE0104B1A68FB680433194638
:1037C0001046FEF7CDF912E07A683B689A4206D2BD
:1037D000BA683B689A4202D301237B6107E0074B3A
:1037E0001A68FB68043319461046FEF7B9F97B697D
:1037F00018461837BD4680BD8C0D0020880D00206E
:1038000080B58EB002AFA5E07B68002B19DA3B1DB6
:103810000433FB62FB6A002B0BD14FF0500383F3A0
:103820001188BFF36F8FBFF34F8FFB6100BF00BFE5
:10383000FDE7FB6A1B68FA6A5068FA6A92681146EB
:1038400098477B68002BC0F28580FB68BB62BB6A2F
:103850005B69002B04D0BB6A04331846FEF7B8F945
:103860003B461846FFF76AFF78627B68092B6CD8E5
:1038700001A252F823F000BFA1380008A1380008C7
:10388000A13800084B390008FF3800083939000812
:10389000A1380008A13800084B390008FF3800089B
:1038A000BA68BB6A9B69D118BB687A6AB86AFFF7C5
:1038B00065FF0346002B4AD0BB6A5B6AB86A98472B
:1038C000BB6ADB69012B42D1BA68BB6A9B691A44A7
:1038D0000023009300230021B86AFFF719FE386225
:1038E0003B6A002B33D14FF0500383F31188BFF3B1
:1038F0006F8FBFF34F8FBB6100BF00BFFDE7BA689A
:10390000BB6A9A61BB6A9B69002B0BD14FF05003D5
:1039100083F31188BFF36F8FBFF34F8F7B6100BFBD
:1039200000BFFDE7BB6A9A697B6AD1187B6A7A6A35
:10393000B86AFFF723FF0DE0BB6A93F82C30002B29
:1039400007D1B86A00F074FB03E000BF02E000BFDB
:1039500000E000BF074B1B68391D00221846FEF728
:1039600009FC0346002B7FF44FAF00BF00BF303788
:10397000BD4680BD900D002080B588B002AF46E006
:103980002C4B1B68DB681B683B612A4B1B68DB68A0
:10399000DB68FB60FB6804331846FEF719F9FB6827
:1039A0005B6AF8689847FB68DB69012B2FD1FB68DD
:1039B0009B693A691344BB60BA683B699A420ED965
:1039C000FB68BA685A60FB68FA681A61194B1A6892
:1039D000FB68043319461046FEF7C2F817E00023CF
:1039E000009300233A690021F868FFF791FD7860A1
:1039F0007B68002B0BD14FF0500383F31188BFF38A
:103A00006F8FBFF34F8F3B6000BF00BFFDE7094BD7
:103A10001B681B68002BB3D1064B1B687B61064BF0
:103A20001B68044A1360044A7B69136000BF18379F
:103A3000BD4680BD880D00208C0D002080B582B071
:103A400002AF00F02BF9154B1B68002B20D1144856
:103A5000FEF738F81348FEF735F8134B104A1A6092
:103A6000124B104A1A6000230093114B114A102187
:103A70000A20FEF741F90346084A1360074B1B680A
:103A8000002B05D0054B1B680B491846FEF764FD5B
:103A900000F034F900BFBD4680BD00BF900D00208E
:103AA000600D0020740D0020880D00208C0D00207A
:103AB0003C0E00209C0D00206044000880B485B0BE
:103AC00000AFF860B9607A60FB68043BFB60FB689C
:103AD0004FF080721A60FB68043BFB60BB6823F008
:103AE0000102FB681A60FB68043BFB60084AFB6844
:103AF0001A60FB68143BFB607A68FB681A60FB681D
:103B0000203BFB60FB6818461437BD4680BC7047FD
:103B1000153B000880B485B000AF00237B60124BDA
:103B20001B68B3F1FF3F0BD04FF0500383F31188B4
:103B3000BFF36F8FBFF34F8FFB6000BF00BFFDE788
:103B40004FF0500383F31188BFF36F8FBFF34F8F94
:103B5000BB6000BF00BF7B68002BFCD000BF00BF74
:103B60001437BD4680BC70470C00002000000000E8
:103B7000074B19680868B0E8F00F80F30988BFF3B5
:103B80006F8F4FF0000080F311884EF00D0E7047DC
:103B90006008002000BF00BF06480068006880F38E
:103BA000088862B661B6BFF34F8FBFF36F8F00DF37
:103BB00000BF00BF08ED00E080B584B000AF324B1D
:103BC000FB60FB681B78DBB27B60FB68FF221A702E
:103BD000FB681B78DBB2FB70FB78DBB203F05003B1
:103BE000DAB22A4B1A702A4B07221A6009E0284BD6
:103BF0001B68013B264A1360FB78DBB25B00DBB23B
:103C0000FB70FB78DBB203F08003802BEFD0204BFE
:103C10001B68C3F10703042B0BD04FF0500383F351
:103C20001188BFF36F8FBFF34F8FBB6000BF00BF22
:103C3000FDE7174B1B681B02154A1360144B1B68EA
:103C400003F4E063124A13607B68DAB2FB681A700F
:103C5000104B1B680F4A43F4700313600D4B1B6835
:103C60000C4A43F07043136000F0B8F80A4B00228E
:103C70001A60FFF791FFFFF79FF8FFF74BFF002354
:103C800018461037BD4680BD00E400E08C0E0020D1
:103C9000900E002020ED00E00C00002080B483B0E6
:103CA00000AF4FF0500383F31188BFF36F8FBFF362
:103CB0004F8F7B6000BF0F4B1B6801330D4A1360B1
:103CC0000C4B1B68012B10D10B4B1B68DBB2002B7C
:103CD0000BD04FF0500383F31188BFF36F8FBFF306
:103CE0004F8F3B6000BF00BFFDE700BF0C37BD46F4
:103CF00080BC70470C00002004ED00E080B483B06D
:103D000000AF124B1B68002B0BD14FF0500383F315
:103D10001188BFF36F8FBFF34F8F7B6000BF00BF71
:103D2000FDE70A4B1B68013B084A1360074B1B6801
:103D3000002B05D100233B603B6883F3118800BF53
:103D400000BF0C37BD4680BC704700BF0C00002090
:103D5000EFF30980BFF36F8F0D4B1A6820E9F00F66
:103D600010602DE908404FF0500080F31188FFF7F4
:103D700023F84FF0000080F31188BDE8084019686F
:103D80000868B0E8F00F80F30988BFF36F8F7047C1
:103D90006008002000BF00BF80B582B000AF4FF0C8
:103DA000500383F31188BFF36F8FBFF34F8F7B6096
:103DB00000BFFEF741FF0346002B03D0064B4FF038
:103DC00080521A6000233B603B6883F3118800BF78
:103DD00000BF0837BD4680BD04ED00E080B400AFF1
:103DE0000A4B00221A600A4B00221A60094B1B681A
:103DF000094AA2FB03239B09084A013B1360034BBA
:103E000007221A6000BFBD4680BC704710E000E08A
:103E100018E000E000000020D34D621014E000E044
:103E200080B485B000AFEFF30583FB60FB680F2B18
:103E300015D9174AFB6813441B78FB72154B1B7886
:103E4000FA7A9A420BD24FF0500383F31188BFF3F2
:103E50006F8FBFF34F8F7B6000BF00BFFDE70E4B3E
:103E60001B6803F4E0620D4B1B689A420BD94FF0BC
:103E7000500383F31188BFF36F8FBFF34F8F3B6005
:103E800000BF00BFFDE700BF1437BD4680BC7047D0
:103E9000F0E300E08C0E00200CED00E0900E00201E
:103EA00080B58AB000AF78600023FB61FEF70AFEA0
:103EB0005A4B1B68002B01D100F016F9584B1A68B9
:103EC0007B681340002B40F090807B68002B1ED055
:103ED00008227B6813447B607B6803F00703002B98
:103EE00015D07B6823F0070308337B607B6803F001
:103EF0000703002B0BD04FF0500383F31188BFF35F
:103F00006F8FBFF34F8F7B6100BF00BFFDE77B6802
:103F1000002B6AD0434B1B687A689A4265D8424BA3
:103F20003B62414B1B687B6204E07B6A3B627B6ABD
:103F30001B687B627B6A5B687A689A4203D97B6AFA
:103F40001B68002BF1D1354B1B687A6A9A424CD022
:103F50003B6A1B6808221344FB617B6A1A683B6A50
:103F60001A607B6A5A687B68D21A08235B009A42FF
:103F700020D97A6A7B681344BB61BB6903F00703ED
:103F8000002B0BD04FF0500383F31188BFF36F8FDA
:103F9000BFF34F8F3B6100BF00BFFDE77B6A5A68EC
:103FA0007B68D21ABB695A607B6A7A685A60B869C2
:103FB00000F0FCF81B4B1A687B6A5B68D31A194A3D
:103FC0001360184B1A68194B1B689A4203D2154BA1
:103FD0001B68164A13607B6A5A68114B1B681A43A8
:103FE0007B6A5A607B6A00221A60FEF779FDFB69E2
:103FF00003F00703002B0BD04FF0500383F311881D
:10400000BFF36F8FBFF34F8FFB6000BF00BFFDE7B3
:10401000FB6918462837BD4680BD00BF9C1A0020AA
:10402000A81A0020A01A0020941A0020A41A002028
:1040300080B586B000AF78607B687B617B68002BC1
:104040004AD008235B427A6913447B617B693B61F8
:104050003B695A68224B1B681340002B0BD14FF071
:10406000500383F31188BFF36F8FBFF34F8FFB6053
:1040700000BF00BFFDE73B691B68002B0BD04FF072
:10408000500383F31188BFF36F8FBFF34F8FBB6073
:1040900000BF00BFFDE73B695A68114B1B68134026
:1040A000002B19D03B691B68002B15D13B695A685E
:1040B0000B4B1B68DB431A403B695A60FEF702FD5D
:1040C0003B695A68074B1B681344064A13603869FA
:1040D00000F06CF8FEF704FD00BF1837BD4680BD48
:1040E000A81A0020A01A002080B485B000AF4FF4B9
:1040F0004063BB60274BFB60FB6803F00703002BAA
:104100000CD0FB680733FB60FB6823F00703FB6000
:10411000BA68FB68D31A1F4A1344BB60FB687B6014
:104120001D4A7B6813601C4B00225A607B68BA688A
:104130001344FB600822FB689B1AFB60FB6823F0BA
:104140000703FB60FB68154A1360144B1B680022D1
:104150005A60124B1B6800221A607B683B603B6808
:10416000FA68D21A3B685A600C4B1A683B681A60AE
:104170003B685B680A4A13603B685B68094A1360E6
:10418000094B4FF000421A6000BF1437BD4680BC97
:10419000704700BF940E0020941A00209C1A002043
:1041A000A41A0020A01A0020A81A002080B485B00C
:1041B00000AF7860274BFB6002E0FB681B68FB6088
:1041C000FB681B687A689A42F7D8FB68BB60FB689B
:1041D0005B68BA6813447A689A4208D1FB685A68E7
:1041E0007B685B681A44FB685A60FB687B607B688D
:1041F000BB607B685B68BA681A44FB681B689A42BC
:1042000018D1FB681A68144B1B689A420DD07B6862
:104210005A68FB681B685B681A447B685A60FB68D5
:104220001B681A687B681A6008E00B4B1A687B6889
:104230001A6003E0FB681A687B681A60FA687B689A
:104240009A4202D0FB687A681A6000BF1437BD46F4
:1042500080BC7047941A00209C1A00200346024438
:10426000934200D1704703F8011BF9E7294B70B561
:104270001B68044683424BD0C369ABB1DB686BB1AA
:104280000025E369DB68595900293BD10435802DAD
:10429000F7D1E3692046D96800F072F8E36919683C
:1042A00011B1204600F06CF8616911B1204600F0B0
:1042B00067F8E16911B1204600F062F8216B11B195
:1042C000204600F05DF8616B11B1204600F058F80F
:1042D000A16B11B1204600F053F8A16C11B120463A
:1042E00000F04EF8616C11B1204600F049F8E16A27
:1042F00011B1204600F044F8236A4BB12046BDE8D6
:10430000704018470E68204600F03AF83146BBE787
:1043100070BD00BF1000002070B500260C4D0D4C84
:10432000641BA410A64209D100F07EF800260A4DB5
:104330000A4C641BA410A64205D170BD55F8043B7D
:1043400098470136EEE755F8043B98470136F2E707
:10435000B8440008B8440008B8440008BC44000849
:10436000704770470A44914200F1FF3300D1704713
:1043700010B511F8014B914203F8014FF9D110BD6E
:1043800038B50546002940D051F8043C0C1F002BDD
:10439000B8BFE41800F03CF81C4A136833B96360F6
:1043A00014602846BDE8384000F038B8A34208D968
:1043B000206821188B4201BF19685B6809182160C9
:1043C000EDE71A465B680BB1A342FAD911685018A1
:1043D000A0420BD120680144501883421160E0D103
:1043E00018685B68084410605360DAE702D90C2350
:1043F0002B60D6E7206821188B4201BF19685B68E3
:104400000918216063605460CBE738BDE81B0020C9
:104410000148FFF7A5BF00BFE41B00200148FFF7DC
:10442000A0BF00BFE41B0020F8B500BFF8BC08BC6B
:104430009E467047F8B500BFF8BC08BC9E46704762
:10444000626C696E6B4C65645461736B00000000B4
:1044500049444C4500000000546D722053766300BF
:10446000546D72510000000040440008000000003C
:10447000000000000000000000000000000200003A
:104480001800000000000000000000000000000014
:1044900000000000010203040607080900000000F4
:1044A0000102030402030405060708090A0B0C0DA8
:0844B0000E0F101001020000C4
:0444B80035010008C2
:0444BC0011010008E2
:1044C0000024F4001000000001000000AAAAAAAA1B
:1044D0001400002000000000AC1A0020141B002073
:1044E0007C1B002000000000000000000000000015
:1044F00000000000000000000000000000000000BC
:1045000000000000000000000000000000000000AB
:10451000000000000000000000000000000000009B
:04000005080004D516
:00000001FF
